{
  "_format": "hh-sol-artifact-1",
  "contractName": "ARpunks",
  "sourceName": "contracts/ARpunks.sol",
  "abi": [
    {
      "inputs": [
        {
          "internalType": "string",
          "name": "_baseURI",
          "type": "string"
        }
      ],
      "stateMutability": "nonpayable",
      "type": "constructor"
    },
    {
      "anonymous": false,
      "inputs": [
        {
          "indexed": true,
          "internalType": "address",
          "name": "owner",
          "type": "address"
        },
        {
          "indexed": true,
          "internalType": "address",
          "name": "approved",
          "type": "address"
        },
        {
          "indexed": true,
          "internalType": "uint256",
          "name": "tokenId",
          "type": "uint256"
        }
      ],
      "name": "Approval",
      "type": "event"
    },
    {
      "anonymous": false,
      "inputs": [
        {
          "indexed": true,
          "internalType": "address",
          "name": "owner",
          "type": "address"
        },
        {
          "indexed": true,
          "internalType": "address",
          "name": "operator",
          "type": "address"
        },
        {
          "indexed": false,
          "internalType": "bool",
          "name": "approved",
          "type": "bool"
        }
      ],
      "name": "ApprovalForAll",
      "type": "event"
    },
    {
      "anonymous": false,
      "inputs": [
        {
          "indexed": true,
          "internalType": "address",
          "name": "previousOwner",
          "type": "address"
        },
        {
          "indexed": true,
          "internalType": "address",
          "name": "newOwner",
          "type": "address"
        }
      ],
      "name": "OwnershipTransferred",
      "type": "event"
    },
    {
      "anonymous": false,
      "inputs": [
        {
          "indexed": true,
          "internalType": "address",
          "name": "from",
          "type": "address"
        },
        {
          "indexed": true,
          "internalType": "address",
          "name": "to",
          "type": "address"
        },
        {
          "indexed": true,
          "internalType": "uint256",
          "name": "tokenId",
          "type": "uint256"
        }
      ],
      "name": "Transfer",
      "type": "event"
    },
    {
      "inputs": [
        {
          "internalType": "address",
          "name": "to",
          "type": "address"
        },
        {
          "internalType": "uint256",
          "name": "tokenId",
          "type": "uint256"
        }
      ],
      "name": "approve",
      "outputs": [],
      "stateMutability": "nonpayable",
      "type": "function"
    },
    {
      "inputs": [
        {
          "internalType": "address",
          "name": "owner",
          "type": "address"
        }
      ],
      "name": "balanceOf",
      "outputs": [
        {
          "internalType": "uint256",
          "name": "",
          "type": "uint256"
        }
      ],
      "stateMutability": "view",
      "type": "function"
    },
    {
      "inputs": [
        {
          "internalType": "uint256",
          "name": "tokenId",
          "type": "uint256"
        }
      ],
      "name": "getApproved",
      "outputs": [
        {
          "internalType": "address",
          "name": "",
          "type": "address"
        }
      ],
      "stateMutability": "view",
      "type": "function"
    },
    {
      "inputs": [
        {
          "internalType": "address",
          "name": "owner",
          "type": "address"
        },
        {
          "internalType": "address",
          "name": "operator",
          "type": "address"
        }
      ],
      "name": "isApprovedForAll",
      "outputs": [
        {
          "internalType": "bool",
          "name": "",
          "type": "bool"
        }
      ],
      "stateMutability": "view",
      "type": "function"
    },
    {
      "inputs": [],
      "name": "mint",
      "outputs": [],
      "stateMutability": "payable",
      "type": "function"
    },
    {
      "inputs": [],
      "name": "name",
      "outputs": [
        {
          "internalType": "string",
          "name": "",
          "type": "string"
        }
      ],
      "stateMutability": "view",
      "type": "function"
    },
    {
      "inputs": [],
      "name": "noOfTokens",
      "outputs": [
        {
          "internalType": "uint256",
          "name": "",
          "type": "uint256"
        }
      ],
      "stateMutability": "view",
      "type": "function"
    },
    {
      "inputs": [],
      "name": "owner",
      "outputs": [
        {
          "internalType": "address",
          "name": "",
          "type": "address"
        }
      ],
      "stateMutability": "view",
      "type": "function"
    },
    {
      "inputs": [
        {
          "internalType": "uint256",
          "name": "tokenId",
          "type": "uint256"
        }
      ],
      "name": "ownerOf",
      "outputs": [
        {
          "internalType": "address",
          "name": "",
          "type": "address"
        }
      ],
      "stateMutability": "view",
      "type": "function"
    },
    {
      "inputs": [],
      "name": "renounceOwnership",
      "outputs": [],
      "stateMutability": "nonpayable",
      "type": "function"
    },
    {
      "inputs": [
        {
          "internalType": "address",
          "name": "from",
          "type": "address"
        },
        {
          "internalType": "address",
          "name": "to",
          "type": "address"
        },
        {
          "internalType": "uint256",
          "name": "tokenId",
          "type": "uint256"
        }
      ],
      "name": "safeTransferFrom",
      "outputs": [],
      "stateMutability": "nonpayable",
      "type": "function"
    },
    {
      "inputs": [
        {
          "internalType": "address",
          "name": "from",
          "type": "address"
        },
        {
          "internalType": "address",
          "name": "to",
          "type": "address"
        },
        {
          "internalType": "uint256",
          "name": "tokenId",
          "type": "uint256"
        },
        {
          "internalType": "bytes",
          "name": "data",
          "type": "bytes"
        }
      ],
      "name": "safeTransferFrom",
      "outputs": [],
      "stateMutability": "nonpayable",
      "type": "function"
    },
    {
      "inputs": [
        {
          "internalType": "address",
          "name": "operator",
          "type": "address"
        },
        {
          "internalType": "bool",
          "name": "approved",
          "type": "bool"
        }
      ],
      "name": "setApprovalForAll",
      "outputs": [],
      "stateMutability": "nonpayable",
      "type": "function"
    },
    {
      "inputs": [
        {
          "internalType": "bytes4",
          "name": "interfaceId",
          "type": "bytes4"
        }
      ],
      "name": "supportsInterface",
      "outputs": [
        {
          "internalType": "bool",
          "name": "",
          "type": "bool"
        }
      ],
      "stateMutability": "view",
      "type": "function"
    },
    {
      "inputs": [],
      "name": "symbol",
      "outputs": [
        {
          "internalType": "string",
          "name": "",
          "type": "string"
        }
      ],
      "stateMutability": "view",
      "type": "function"
    },
    {
      "inputs": [
        {
          "internalType": "uint256",
          "name": "index",
          "type": "uint256"
        }
      ],
      "name": "tokenByIndex",
      "outputs": [
        {
          "internalType": "uint256",
          "name": "",
          "type": "uint256"
        }
      ],
      "stateMutability": "view",
      "type": "function"
    },
    {
      "inputs": [
        {
          "internalType": "address",
          "name": "owner",
          "type": "address"
        },
        {
          "internalType": "uint256",
          "name": "index",
          "type": "uint256"
        }
      ],
      "name": "tokenOfOwnerByIndex",
      "outputs": [
        {
          "internalType": "uint256",
          "name": "",
          "type": "uint256"
        }
      ],
      "stateMutability": "view",
      "type": "function"
    },
    {
      "inputs": [
        {
          "internalType": "uint256",
          "name": "tokenId",
          "type": "uint256"
        }
      ],
      "name": "tokenURI",
      "outputs": [
        {
          "internalType": "string",
          "name": "",
          "type": "string"
        }
      ],
      "stateMutability": "view",
      "type": "function"
    },
    {
      "inputs": [],
      "name": "totalSupply",
      "outputs": [
        {
          "internalType": "uint256",
          "name": "",
          "type": "uint256"
        }
      ],
      "stateMutability": "view",
      "type": "function"
    },
    {
      "inputs": [
        {
          "internalType": "address",
          "name": "from",
          "type": "address"
        },
        {
          "internalType": "address",
          "name": "to",
          "type": "address"
        },
        {
          "internalType": "uint256",
          "name": "tokenId",
          "type": "uint256"
        }
      ],
      "name": "transferFrom",
      "outputs": [],
      "stateMutability": "nonpayable",
      "type": "function"
    },
    {
      "inputs": [
        {
          "internalType": "address",
          "name": "newOwner",
          "type": "address"
        }
      ],
      "name": "transferOwnership",
      "outputs": [],
      "stateMutability": "nonpayable",
      "type": "function"
    },
    {
      "inputs": [],
      "name": "withdraw",
      "outputs": [],
      "stateMutability": "nonpayable",
      "type": "function"
    },
    {
      "stateMutability": "payable",
      "type": "receive"
    }
  ],
  "bytecode": "0x6080604052600a600c5566470de4df820000600d553480156200002157600080fd5b5060405162003e0f38038062003e0f833981810160405281019062000047919062000373565b6040518060400160405280600b81526020017f415250756e6b746f6b65730000000000000000000000000000000000000000008152506040518060400160405280600681526020017f415270756e6b00000000000000000000000000000000000000000000000000008152508160009081620000c491906200060f565b508060019081620000d691906200060f565b505050620000f9620000ed6200011260201b60201c565b6200011a60201b60201c565b80600b90816200010a91906200060f565b5050620006f6565b600033905090565b6000600a60009054906101000a900473ffffffffffffffffffffffffffffffffffffffff16905081600a60006101000a81548173ffffffffffffffffffffffffffffffffffffffff021916908373ffffffffffffffffffffffffffffffffffffffff1602179055508173ffffffffffffffffffffffffffffffffffffffff168173ffffffffffffffffffffffffffffffffffffffff167f8be0079c531659141344cd1fd0a4f28419497f9722a3daafe3b4186f6b6457e060405160405180910390a35050565b6000604051905090565b600080fd5b600080fd5b600080fd5b600080fd5b6000601f19601f8301169050919050565b7f4e487b7100000000000000000000000000000000000000000000000000000000600052604160045260246000fd5b6200024982620001fe565b810181811067ffffffffffffffff821117156200026b576200026a6200020f565b5b80604052505050565b600062000280620001e0565b90506200028e82826200023e565b919050565b600067ffffffffffffffff821115620002b157620002b06200020f565b5b620002bc82620001fe565b9050602081019050919050565b60005b83811015620002e9578082015181840152602081019050620002cc565b60008484015250505050565b60006200030c620003068462000293565b62000274565b9050828152602081018484840111156200032b576200032a620001f9565b5b62000338848285620002c9565b509392505050565b600082601f830112620003585762000357620001f4565b5b81516200036a848260208601620002f5565b91505092915050565b6000602082840312156200038c576200038b620001ea565b5b600082015167ffffffffffffffff811115620003ad57620003ac620001ef565b5b620003bb8482850162000340565b91505092915050565b600081519050919050565b7f4e487b7100000000000000000000000000000000000000000000000000000000600052602260045260246000fd5b600060028204905060018216806200041757607f821691505b6020821081036200042d576200042c620003cf565b5b50919050565b60008190508160005260206000209050919050565b60006020601f8301049050919050565b600082821b905092915050565b600060088302620004977fffffffffffffffffffffffffffffffffffffffffffffffffffffffffffffffff8262000458565b620004a3868362000458565b95508019841693508086168417925050509392505050565b6000819050919050565b6000819050919050565b6000620004f0620004ea620004e484620004bb565b620004c5565b620004bb565b9050919050565b6000819050919050565b6200050c83620004cf565b620005246200051b82620004f7565b84845462000465565b825550505050565b600090565b6200053b6200052c565b6200054881848462000501565b505050565b5b8181101562000570576200056460008262000531565b6001810190506200054e565b5050565b601f821115620005bf57620005898162000433565b620005948462000448565b81016020851015620005a4578190505b620005bc620005b38562000448565b8301826200054d565b50505b505050565b600082821c905092915050565b6000620005e460001984600802620005c4565b1980831691505092915050565b6000620005ff8383620005d1565b9150826002028217905092915050565b6200061a82620003c4565b67ffffffffffffffff8111156200063657620006356200020f565b5b620006428254620003fe565b6200064f82828562000574565b600060209050601f83116001811462000687576000841562000672578287015190505b6200067e8582620005f1565b865550620006ee565b601f198416620006978662000433565b60005b82811015620006c1578489015182556001820191506020850194506020810190506200069a565b86831015620006e15784890151620006dd601f891682620005d1565b8355505b6001600288020188555050505b505050505050565b61370980620007066000396000f3fe6080604052600436106101395760003560e01c80634f6ccce7116100ab57806395d89b411161006f57806395d89b4114610412578063a22cb4651461043d578063b88d4fde14610466578063c87b56dd1461048f578063e985e9c5146104cc578063f2fde38b1461050957610140565b80634f6ccce7146103195780636352211e1461035657806370a0823114610393578063715018a6146103d05780638da5cb5b146103e757610140565b806318160ddd116100fd57806318160ddd1461021d57806323b872dd146102485780632f745c591461027157806336e9b344146102ae5780633ccfd60b146102d957806342842e0e146102f057610140565b806301ffc9a71461014557806306fdde0314610182578063081812fc146101ad578063095ea7b3146101ea5780631249c58b1461021357610140565b3661014057005b600080fd5b34801561015157600080fd5b5061016c600480360381019061016791906123ab565b610532565b60405161017991906123f3565b60405180910390f35b34801561018e57600080fd5b506101976105ac565b6040516101a4919061249e565b60405180910390f35b3480156101b957600080fd5b506101d460048036038101906101cf91906124f6565b61063e565b6040516101e19190612564565b60405180910390f35b3480156101f657600080fd5b50610211600480360381019061020c91906125ab565b610684565b005b61021b61079b565b005b34801561022957600080fd5b5061023261083e565b60405161023f91906125fa565b60405180910390f35b34801561025457600080fd5b5061026f600480360381019061026a9190612615565b61084b565b005b34801561027d57600080fd5b50610298600480360381019061029391906125ab565b6108ab565b6040516102a591906125fa565b60405180910390f35b3480156102ba57600080fd5b506102c3610950565b6040516102d091906125fa565b60405180910390f35b3480156102e557600080fd5b506102ee61095f565b005b3480156102fc57600080fd5b5061031760048036038101906103129190612615565b610a29565b005b34801561032557600080fd5b50610340600480360381019061033b91906124f6565b610a49565b60405161034d91906125fa565b60405180910390f35b34801561036257600080fd5b5061037d600480360381019061037891906124f6565b610aba565b60405161038a9190612564565b60405180910390f35b34801561039f57600080fd5b506103ba60048036038101906103b59190612668565b610b40565b6040516103c791906125fa565b60405180910390f35b3480156103dc57600080fd5b506103e5610bf7565b005b3480156103f357600080fd5b506103fc610c0b565b6040516104099190612564565b60405180910390f35b34801561041e57600080fd5b50610427610c35565b604051610434919061249e565b60405180910390f35b34801561044957600080fd5b50610464600480360381019061045f91906126c1565b610cc7565b005b34801561047257600080fd5b5061048d60048036038101906104889190612836565b610cdd565b005b34801561049b57600080fd5b506104b660048036038101906104b191906124f6565b610d3f565b6040516104c3919061249e565b60405180910390f35b3480156104d857600080fd5b506104f360048036038101906104ee91906128b9565b610de7565b60405161050091906123f3565b60405180910390f35b34801561051557600080fd5b50610530600480360381019061052b9190612668565b610e7b565b005b60007f780e9d63000000000000000000000000000000000000000000000000000000007bffffffffffffffffffffffffffffffffffffffffffffffffffffffff1916827bffffffffffffffffffffffffffffffffffffffffffffffffffffffff191614806105a557506105a482610efe565b5b9050919050565b6060600080546105bb90612928565b80601f01602080910402602001604051908101604052809291908181526020018280546105e790612928565b80156106345780601f1061060957610100808354040283529160200191610634565b820191906000526020600020905b81548152906001019060200180831161061757829003601f168201915b5050505050905090565b600061064982610fe0565b6004600083815260200190815260200160002060009054906101000a900473ffffffffffffffffffffffffffffffffffffffff169050919050565b600061068f82610aba565b90508073ffffffffffffffffffffffffffffffffffffffff168373ffffffffffffffffffffffffffffffffffffffff16036106ff576040517f08c379a00000000000000000000000000000000000000000000000000000000081526004016106f6906129cb565b60405180910390fd5b8073ffffffffffffffffffffffffffffffffffffffff1661071e61102b565b73ffffffffffffffffffffffffffffffffffffffff16148061074d575061074c8161074761102b565b610de7565b5b61078c576040517f08c379a000000000000000000000000000000000000000000000000000000000815260040161078390612a5d565b60405180910390fd5b6107968383611033565b505050565b600c546107a661083e565b106107e6576040517f08c379a00000000000000000000000000000000000000000000000000000000081526004016107dd90612ac9565b60405180910390fd5b600d5434101561082b576040517f08c379a000000000000000000000000000000000000000000000000000000000815260040161082290612b35565b60405180910390fd5b61083c3361083761083e565b6110ec565b565b6000600880549050905090565b61085c61085661102b565b8261110a565b61089b576040517f08c379a000000000000000000000000000000000000000000000000000000000815260040161089290612bc7565b60405180910390fd5b6108a683838361119f565b505050565b60006108b683610b40565b82106108f7576040517f08c379a00000000000000000000000000000000000000000000000000000000081526004016108ee90612c59565b60405180910390fd5b600660008473ffffffffffffffffffffffffffffffffffffffff1673ffffffffffffffffffffffffffffffffffffffff168152602001908152602001600020600083815260200190815260200160002054905092915050565b600061095a61083e565b905090565b610967611498565b6000610971610c0b565b9050600047905060008273ffffffffffffffffffffffffffffffffffffffff168260405161099e90612caa565b60006040518083038185875af1925050503d80600081146109db576040519150601f19603f3d011682016040523d82523d6000602084013e6109e0565b606091505b5050905080610a24576040517f08c379a0000000000000000000000000000000000000000000000000000000008152600401610a1b90612d0b565b60405180910390fd5b505050565b610a4483838360405180602001604052806000815250610cdd565b505050565b6000610a5361083e565b8210610a94576040517f08c379a0000000000000000000000000000000000000000000000000000000008152600401610a8b90612d9d565b60405180910390fd5b60088281548110610aa857610aa7612dbd565b5b90600052602060002001549050919050565b600080610ac683611516565b9050600073ffffffffffffffffffffffffffffffffffffffff168173ffffffffffffffffffffffffffffffffffffffff1603610b37576040517f08c379a0000000000000000000000000000000000000000000000000000000008152600401610b2e90612e38565b60405180910390fd5b80915050919050565b60008073ffffffffffffffffffffffffffffffffffffffff168273ffffffffffffffffffffffffffffffffffffffff1603610bb0576040517f08c379a0000000000000000000000000000000000000000000000000000000008152600401610ba790612eca565b60405180910390fd5b600360008373ffffffffffffffffffffffffffffffffffffffff1673ffffffffffffffffffffffffffffffffffffffff168152602001908152602001600020549050919050565b610bff611498565b610c096000611553565b565b6000600a60009054906101000a900473ffffffffffffffffffffffffffffffffffffffff16905090565b606060018054610c4490612928565b80601f0160208091040260200160405190810160405280929190818152602001828054610c7090612928565b8015610cbd5780601f10610c9257610100808354040283529160200191610cbd565b820191906000526020600020905b815481529060010190602001808311610ca057829003601f168201915b5050505050905090565b610cd9610cd261102b565b8383611619565b5050565b610cee610ce861102b565b8361110a565b610d2d576040517f08c379a0000000000000000000000000000000000000000000000000000000008152600401610d2490612bc7565b60405180910390fd5b610d3984848484611785565b50505050565b6060610d4a826117e1565b610d89576040517f08c379a0000000000000000000000000000000000000000000000000000000008152600401610d8090612f36565b60405180910390fd5b6000600b8054610d9890612928565b905011610db45760405180602001604052806000815250610de0565b600b610dbf83611822565b604051602001610dd0929190613076565b6040516020818303038152906040525b9050919050565b6000600560008473ffffffffffffffffffffffffffffffffffffffff1673ffffffffffffffffffffffffffffffffffffffff16815260200190815260200160002060008373ffffffffffffffffffffffffffffffffffffffff1673ffffffffffffffffffffffffffffffffffffffff16815260200190815260200160002060009054906101000a900460ff16905092915050565b610e83611498565b600073ffffffffffffffffffffffffffffffffffffffff168173ffffffffffffffffffffffffffffffffffffffff1603610ef2576040517f08c379a0000000000000000000000000000000000000000000000000000000008152600401610ee990613117565b60405180910390fd5b610efb81611553565b50565b60007f80ac58cd000000000000000000000000000000000000000000000000000000007bffffffffffffffffffffffffffffffffffffffffffffffffffffffff1916827bffffffffffffffffffffffffffffffffffffffffffffffffffffffff19161480610fc957507f5b5e139f000000000000000000000000000000000000000000000000000000007bffffffffffffffffffffffffffffffffffffffffffffffffffffffff1916827bffffffffffffffffffffffffffffffffffffffffffffffffffffffff1916145b80610fd95750610fd8826118f0565b5b9050919050565b610fe9816117e1565b611028576040517f08c379a000000000000000000000000000000000000000000000000000000000815260040161101f90612e38565b60405180910390fd5b50565b600033905090565b816004600083815260200190815260200160002060006101000a81548173ffffffffffffffffffffffffffffffffffffffff021916908373ffffffffffffffffffffffffffffffffffffffff160217905550808273ffffffffffffffffffffffffffffffffffffffff166110a683610aba565b73ffffffffffffffffffffffffffffffffffffffff167f8c5be1e5ebec7d5bd14f71427d1e84f3dd0314c0f7b2291e5b200ac8c7c3b92560405160405180910390a45050565b61110682826040518060200160405280600081525061195a565b5050565b60008061111683610aba565b90508073ffffffffffffffffffffffffffffffffffffffff168473ffffffffffffffffffffffffffffffffffffffff16148061115857506111578185610de7565b5b8061119657508373ffffffffffffffffffffffffffffffffffffffff1661117e8461063e565b73ffffffffffffffffffffffffffffffffffffffff16145b91505092915050565b8273ffffffffffffffffffffffffffffffffffffffff166111bf82610aba565b73ffffffffffffffffffffffffffffffffffffffff1614611215576040517f08c379a000000000000000000000000000000000000000000000000000000000815260040161120c906131a9565b60405180910390fd5b600073ffffffffffffffffffffffffffffffffffffffff168273ffffffffffffffffffffffffffffffffffffffff1603611284576040517f08c379a000000000000000000000000000000000000000000000000000000000815260040161127b9061323b565b60405180910390fd5b61129183838360016119b5565b8273ffffffffffffffffffffffffffffffffffffffff166112b182610aba565b73ffffffffffffffffffffffffffffffffffffffff1614611307576040517f08c379a00000000000000000000000000000000000000000000000000000000081526004016112fe906131a9565b60405180910390fd5b6004600082815260200190815260200160002060006101000a81549073ffffffffffffffffffffffffffffffffffffffff02191690556001600360008573ffffffffffffffffffffffffffffffffffffffff1673ffffffffffffffffffffffffffffffffffffffff168152602001908152602001600020600082825403925050819055506001600360008473ffffffffffffffffffffffffffffffffffffffff1673ffffffffffffffffffffffffffffffffffffffff16815260200190815260200160002060008282540192505081905550816002600083815260200190815260200160002060006101000a81548173ffffffffffffffffffffffffffffffffffffffff021916908373ffffffffffffffffffffffffffffffffffffffff160217905550808273ffffffffffffffffffffffffffffffffffffffff168473ffffffffffffffffffffffffffffffffffffffff167fddf252ad1be2c89b69c2b068fc378daa952ba7f163c4a11628f55a4df523b3ef60405160405180910390a46114938383836001611b13565b505050565b6114a061102b565b73ffffffffffffffffffffffffffffffffffffffff166114be610c0b565b73ffffffffffffffffffffffffffffffffffffffff1614611514576040517f08c379a000000000000000000000000000000000000000000000000000000000815260040161150b906132a7565b60405180910390fd5b565b60006002600083815260200190815260200160002060009054906101000a900473ffffffffffffffffffffffffffffffffffffffff169050919050565b6000600a60009054906101000a900473ffffffffffffffffffffffffffffffffffffffff16905081600a60006101000a81548173ffffffffffffffffffffffffffffffffffffffff021916908373ffffffffffffffffffffffffffffffffffffffff1602179055508173ffffffffffffffffffffffffffffffffffffffff168173ffffffffffffffffffffffffffffffffffffffff167f8be0079c531659141344cd1fd0a4f28419497f9722a3daafe3b4186f6b6457e060405160405180910390a35050565b8173ffffffffffffffffffffffffffffffffffffffff168373ffffffffffffffffffffffffffffffffffffffff1603611687576040517f08c379a000000000000000000000000000000000000000000000000000000000815260040161167e90613313565b60405180910390fd5b80600560008573ffffffffffffffffffffffffffffffffffffffff1673ffffffffffffffffffffffffffffffffffffffff16815260200190815260200160002060008473ffffffffffffffffffffffffffffffffffffffff1673ffffffffffffffffffffffffffffffffffffffff16815260200190815260200160002060006101000a81548160ff0219169083151502179055508173ffffffffffffffffffffffffffffffffffffffff168373ffffffffffffffffffffffffffffffffffffffff167f17307eab39ab6107e8899845ad3d59bd9653f200f220920489ca2b5937696c318360405161177891906123f3565b60405180910390a3505050565b61179084848461119f565b61179c84848484611b19565b6117db576040517f08c379a00000000000000000000000000000000000000000000000000000000081526004016117d2906133a5565b60405180910390fd5b50505050565b60008073ffffffffffffffffffffffffffffffffffffffff1661180383611516565b73ffffffffffffffffffffffffffffffffffffffff1614159050919050565b60606000600161183184611ca0565b01905060008167ffffffffffffffff8111156118505761184f61270b565b5b6040519080825280601f01601f1916602001820160405280156118825781602001600182028036833780820191505090505b509050600082602001820190505b6001156118e5578080600190039150507f3031323334353637383961626364656600000000000000000000000000000000600a86061a8153600a85816118d9576118d86133c5565b5b04945060008503611890575b819350505050919050565b60007f01ffc9a7000000000000000000000000000000000000000000000000000000007bffffffffffffffffffffffffffffffffffffffffffffffffffffffff1916827bffffffffffffffffffffffffffffffffffffffffffffffffffffffff1916149050919050565b6119648383611df3565b6119716000848484611b19565b6119b0576040517f08c379a00000000000000000000000000000000000000000000000000000000081526004016119a7906133a5565b60405180910390fd5b505050565b6119c184848484612010565b6001811115611a05576040517f08c379a00000000000000000000000000000000000000000000000000000000081526004016119fc90613466565b60405180910390fd5b6000829050600073ffffffffffffffffffffffffffffffffffffffff168573ffffffffffffffffffffffffffffffffffffffff1603611a4c57611a4781612016565b611a8b565b8373ffffffffffffffffffffffffffffffffffffffff168573ffffffffffffffffffffffffffffffffffffffff1614611a8a57611a89858261205f565b5b5b600073ffffffffffffffffffffffffffffffffffffffff168473ffffffffffffffffffffffffffffffffffffffff1603611acd57611ac8816121cc565b611b0c565b8473ffffffffffffffffffffffffffffffffffffffff168473ffffffffffffffffffffffffffffffffffffffff1614611b0b57611b0a848261229d565b5b5b5050505050565b50505050565b6000611b3a8473ffffffffffffffffffffffffffffffffffffffff1661231c565b15611c93578373ffffffffffffffffffffffffffffffffffffffff1663150b7a02611b6361102b565b8786866040518563ffffffff1660e01b8152600401611b8594939291906134db565b6020604051808303816000875af1925050508015611bc157506040513d601f19601f82011682018060405250810190611bbe919061353c565b60015b611c43573d8060008114611bf1576040519150601f19603f3d011682016040523d82523d6000602084013e611bf6565b606091505b506000815103611c3b576040517f08c379a0000000000000000000000000000000000000000000000000000000008152600401611c32906133a5565b60405180910390fd5b805181602001fd5b63150b7a0260e01b7bffffffffffffffffffffffffffffffffffffffffffffffffffffffff1916817bffffffffffffffffffffffffffffffffffffffffffffffffffffffff191614915050611c98565b600190505b949350505050565b600080600090507a184f03e93ff9f4daa797ed6e38ed64bf6a1f0100000000000000008310611cfe577a184f03e93ff9f4daa797ed6e38ed64bf6a1f0100000000000000008381611cf457611cf36133c5565b5b0492506040810190505b6d04ee2d6d415b85acef81000000008310611d3b576d04ee2d6d415b85acef81000000008381611d3157611d306133c5565b5b0492506020810190505b662386f26fc100008310611d6a57662386f26fc100008381611d6057611d5f6133c5565b5b0492506010810190505b6305f5e1008310611d93576305f5e1008381611d8957611d886133c5565b5b0492506008810190505b6127108310611db8576127108381611dae57611dad6133c5565b5b0492506004810190505b60648310611ddb5760648381611dd157611dd06133c5565b5b0492506002810190505b600a8310611dea576001810190505b80915050919050565b600073ffffffffffffffffffffffffffffffffffffffff168273ffffffffffffffffffffffffffffffffffffffff1603611e62576040517f08c379a0000000000000000000000000000000000000000000000000000000008152600401611e59906135b5565b60405180910390fd5b611e6b816117e1565b15611eab576040517f08c379a0000000000000000000000000000000000000000000000000000000008152600401611ea290613621565b60405180910390fd5b611eb96000838360016119b5565b611ec2816117e1565b15611f02576040517f08c379a0000000000000000000000000000000000000000000000000000000008152600401611ef990613621565b60405180910390fd5b6001600360008473ffffffffffffffffffffffffffffffffffffffff1673ffffffffffffffffffffffffffffffffffffffff16815260200190815260200160002060008282540192505081905550816002600083815260200190815260200160002060006101000a81548173ffffffffffffffffffffffffffffffffffffffff021916908373ffffffffffffffffffffffffffffffffffffffff160217905550808273ffffffffffffffffffffffffffffffffffffffff16600073ffffffffffffffffffffffffffffffffffffffff167fddf252ad1be2c89b69c2b068fc378daa952ba7f163c4a11628f55a4df523b3ef60405160405180910390a461200c600083836001611b13565b5050565b50505050565b6008805490506009600083815260200190815260200160002081905550600881908060018154018082558091505060019003906000526020600020016000909190919091505550565b6000600161206c84610b40565b6120769190613670565b905060006007600084815260200190815260200160002054905081811461215b576000600660008673ffffffffffffffffffffffffffffffffffffffff1673ffffffffffffffffffffffffffffffffffffffff168152602001908152602001600020600084815260200190815260200160002054905080600660008773ffffffffffffffffffffffffffffffffffffffff1673ffffffffffffffffffffffffffffffffffffffff168152602001908152602001600020600084815260200190815260200160002081905550816007600083815260200190815260200160002081905550505b6007600084815260200190815260200160002060009055600660008573ffffffffffffffffffffffffffffffffffffffff1673ffffffffffffffffffffffffffffffffffffffff16815260200190815260200160002060008381526020019081526020016000206000905550505050565b600060016008805490506121e09190613670565b90506000600960008481526020019081526020016000205490506000600883815481106122105761220f612dbd565b5b90600052602060002001549050806008838154811061223257612231612dbd565b5b906000526020600020018190555081600960008381526020019081526020016000208190555060096000858152602001908152602001600020600090556008805480612281576122806136a4565b5b6001900381819060005260206000200160009055905550505050565b60006122a883610b40565b905081600660008573ffffffffffffffffffffffffffffffffffffffff1673ffffffffffffffffffffffffffffffffffffffff168152602001908152602001600020600083815260200190815260200160002081905550806007600084815260200190815260200160002081905550505050565b6000808273ffffffffffffffffffffffffffffffffffffffff163b119050919050565b6000604051905090565b600080fd5b600080fd5b60007fffffffff0000000000000000000000000000000000000000000000000000000082169050919050565b61238881612353565b811461239357600080fd5b50565b6000813590506123a58161237f565b92915050565b6000602082840312156123c1576123c0612349565b5b60006123cf84828501612396565b91505092915050565b60008115159050919050565b6123ed816123d8565b82525050565b600060208201905061240860008301846123e4565b92915050565b600081519050919050565b600082825260208201905092915050565b60005b8381101561244857808201518184015260208101905061242d565b60008484015250505050565b6000601f19601f8301169050919050565b60006124708261240e565b61247a8185612419565b935061248a81856020860161242a565b61249381612454565b840191505092915050565b600060208201905081810360008301526124b88184612465565b905092915050565b6000819050919050565b6124d3816124c0565b81146124de57600080fd5b50565b6000813590506124f0816124ca565b92915050565b60006020828403121561250c5761250b612349565b5b600061251a848285016124e1565b91505092915050565b600073ffffffffffffffffffffffffffffffffffffffff82169050919050565b600061254e82612523565b9050919050565b61255e81612543565b82525050565b60006020820190506125796000830184612555565b92915050565b61258881612543565b811461259357600080fd5b50565b6000813590506125a58161257f565b92915050565b600080604083850312156125c2576125c1612349565b5b60006125d085828601612596565b92505060206125e1858286016124e1565b9150509250929050565b6125f4816124c0565b82525050565b600060208201905061260f60008301846125eb565b92915050565b60008060006060848603121561262e5761262d612349565b5b600061263c86828701612596565b935050602061264d86828701612596565b925050604061265e868287016124e1565b9150509250925092565b60006020828403121561267e5761267d612349565b5b600061268c84828501612596565b91505092915050565b61269e816123d8565b81146126a957600080fd5b50565b6000813590506126bb81612695565b92915050565b600080604083850312156126d8576126d7612349565b5b60006126e685828601612596565b92505060206126f7858286016126ac565b9150509250929050565b600080fd5b600080fd5b7f4e487b7100000000000000000000000000000000000000000000000000000000600052604160045260246000fd5b61274382612454565b810181811067ffffffffffffffff821117156127625761276161270b565b5b80604052505050565b600061277561233f565b9050612781828261273a565b919050565b600067ffffffffffffffff8211156127a1576127a061270b565b5b6127aa82612454565b9050602081019050919050565b82818337600083830152505050565b60006127d96127d484612786565b61276b565b9050828152602081018484840111156127f5576127f4612706565b5b6128008482856127b7565b509392505050565b600082601f83011261281d5761281c612701565b5b813561282d8482602086016127c6565b91505092915050565b600080600080608085870312156128505761284f612349565b5b600061285e87828801612596565b945050602061286f87828801612596565b9350506040612880878288016124e1565b925050606085013567ffffffffffffffff8111156128a1576128a061234e565b5b6128ad87828801612808565b91505092959194509250565b600080604083850312156128d0576128cf612349565b5b60006128de85828601612596565b92505060206128ef85828601612596565b9150509250929050565b7f4e487b7100000000000000000000000000000000000000000000000000000000600052602260045260246000fd5b6000600282049050600182168061294057607f821691505b602082108103612953576129526128f9565b5b50919050565b7f4552433732313a20617070726f76616c20746f2063757272656e74206f776e6560008201527f7200000000000000000000000000000000000000000000000000000000000000602082015250565b60006129b5602183612419565b91506129c082612959565b604082019050919050565b600060208201905081810360008301526129e4816129a8565b9050919050565b7f4552433732313a20617070726f76652063616c6c6572206973206e6f7420746f60008201527f6b656e206f776e6572206f7220617070726f76656420666f7220616c6c000000602082015250565b6000612a47603d83612419565b9150612a52826129eb565b604082019050919050565b60006020820190508181036000830152612a7681612a3a565b9050919050565b7f416c6c20746865204e46547320617265206d696e746564000000000000000000600082015250565b6000612ab3601783612419565b9150612abe82612a7d565b602082019050919050565b60006020820190508181036000830152612ae281612aa6565b9050919050565b7f496e73756666696369656e74204554482073656e740000000000000000000000600082015250565b6000612b1f601583612419565b9150612b2a82612ae9565b602082019050919050565b60006020820190508181036000830152612b4e81612b12565b9050919050565b7f4552433732313a2063616c6c6572206973206e6f7420746f6b656e206f776e6560008201527f72206f7220617070726f76656400000000000000000000000000000000000000602082015250565b6000612bb1602d83612419565b9150612bbc82612b55565b604082019050919050565b60006020820190508181036000830152612be081612ba4565b9050919050565b7f455243373231456e756d657261626c653a206f776e657220696e646578206f7560008201527f74206f6620626f756e6473000000000000000000000000000000000000000000602082015250565b6000612c43602b83612419565b9150612c4e82612be7565b604082019050919050565b60006020820190508181036000830152612c7281612c36565b9050919050565b600081905092915050565b50565b6000612c94600083612c79565b9150612c9f82612c84565b600082019050919050565b6000612cb582612c87565b9150819050919050565b7f4661696c656420746f2073656e64204574686572000000000000000000000000600082015250565b6000612cf5601483612419565b9150612d0082612cbf565b602082019050919050565b60006020820190508181036000830152612d2481612ce8565b9050919050565b7f455243373231456e756d657261626c653a20676c6f62616c20696e646578206f60008201527f7574206f6620626f756e64730000000000000000000000000000000000000000602082015250565b6000612d87602c83612419565b9150612d9282612d2b565b604082019050919050565b60006020820190508181036000830152612db681612d7a565b9050919050565b7f4e487b7100000000000000000000000000000000000000000000000000000000600052603260045260246000fd5b7f4552433732313a20696e76616c696420746f6b656e2049440000000000000000600082015250565b6000612e22601883612419565b9150612e2d82612dec565b602082019050919050565b60006020820190508181036000830152612e5181612e15565b9050919050565b7f4552433732313a2061646472657373207a65726f206973206e6f74206120766160008201527f6c6964206f776e65720000000000000000000000000000000000000000000000602082015250565b6000612eb4602983612419565b9150612ebf82612e58565b604082019050919050565b60006020820190508181036000830152612ee381612ea7565b9050919050565b7f746f6b656e20646f65736e742065786973747300000000000000000000000000600082015250565b6000612f20601383612419565b9150612f2b82612eea565b602082019050919050565b60006020820190508181036000830152612f4f81612f13565b9050919050565b600081905092915050565b60008190508160005260206000209050919050565b60008154612f8381612928565b612f8d8186612f56565b94506001821660008114612fa85760018114612fbd57612ff0565b60ff1983168652811515820286019350612ff0565b612fc685612f61565b60005b83811015612fe857815481890152600182019150602081019050612fc9565b838801955050505b50505092915050565b60006130048261240e565b61300e8185612f56565b935061301e81856020860161242a565b80840191505092915050565b7f2e6a736f6e000000000000000000000000000000000000000000000000000000600082015250565b6000613060600583612f56565b915061306b8261302a565b600582019050919050565b60006130828285612f76565b915061308e8284612ff9565b915061309982613053565b91508190509392505050565b7f4f776e61626c653a206e6577206f776e657220697320746865207a65726f206160008201527f6464726573730000000000000000000000000000000000000000000000000000602082015250565b6000613101602683612419565b915061310c826130a5565b604082019050919050565b60006020820190508181036000830152613130816130f4565b9050919050565b7f4552433732313a207472616e736665722066726f6d20696e636f72726563742060008201527f6f776e6572000000000000000000000000000000000000000000000000000000602082015250565b6000613193602583612419565b915061319e82613137565b604082019050919050565b600060208201905081810360008301526131c281613186565b9050919050565b7f4552433732313a207472616e7366657220746f20746865207a65726f2061646460008201527f7265737300000000000000000000000000000000000000000000000000000000602082015250565b6000613225602483612419565b9150613230826131c9565b604082019050919050565b6000602082019050818103600083015261325481613218565b9050919050565b7f4f776e61626c653a2063616c6c6572206973206e6f7420746865206f776e6572600082015250565b6000613291602083612419565b915061329c8261325b565b602082019050919050565b600060208201905081810360008301526132c081613284565b9050919050565b7f4552433732313a20617070726f766520746f2063616c6c657200000000000000600082015250565b60006132fd601983612419565b9150613308826132c7565b602082019050919050565b6000602082019050818103600083015261332c816132f0565b9050919050565b7f4552433732313a207472616e7366657220746f206e6f6e20455243373231526560008201527f63656976657220696d706c656d656e7465720000000000000000000000000000602082015250565b600061338f603283612419565b915061339a82613333565b604082019050919050565b600060208201905081810360008301526133be81613382565b9050919050565b7f4e487b7100000000000000000000000000000000000000000000000000000000600052601260045260246000fd5b7f455243373231456e756d657261626c653a20636f6e736563757469766520747260008201527f616e7366657273206e6f7420737570706f727465640000000000000000000000602082015250565b6000613450603583612419565b915061345b826133f4565b604082019050919050565b6000602082019050818103600083015261347f81613443565b9050919050565b600081519050919050565b600082825260208201905092915050565b60006134ad82613486565b6134b78185613491565b93506134c781856020860161242a565b6134d081612454565b840191505092915050565b60006080820190506134f06000830187612555565b6134fd6020830186612555565b61350a60408301856125eb565b818103606083015261351c81846134a2565b905095945050505050565b6000815190506135368161237f565b92915050565b60006020828403121561355257613551612349565b5b600061356084828501613527565b91505092915050565b7f4552433732313a206d696e7420746f20746865207a65726f2061646472657373600082015250565b600061359f602083612419565b91506135aa82613569565b602082019050919050565b600060208201905081810360008301526135ce81613592565b9050919050565b7f4552433732313a20746f6b656e20616c7265616479206d696e74656400000000600082015250565b600061360b601c83612419565b9150613616826135d5565b602082019050919050565b6000602082019050818103600083015261363a816135fe565b9050919050565b7f4e487b7100000000000000000000000000000000000000000000000000000000600052601160045260246000fd5b600061367b826124c0565b9150613686836124c0565b925082820390508181111561369e5761369d613641565b5b92915050565b7f4e487b7100000000000000000000000000000000000000000000000000000000600052603160045260246000fdfea264697066735822122011922001f9cf44fb1f1e3c1cc8d3a4e616384ea44308dee5c819621be249f9e264736f6c63430008120033",
  "linkReferences": {},
  "deployedLinkReferences": {}
}